:100000000C9446000C9465000C9465000C946500FB
:100010000C9465000C9465000C9465000C946500CC
:100020000C9465000C9465000C9465000C946500BC
:100030000C9465000C9465000C9465000C946500AC
:100040000C9465000C9465000C9465000C9465009C
:100050000C9465000C9465000C9465000C9465008C
:100060000C9465000C9465000C9465000C9465007C
:100070000C9465000C9465000C9465000C9465006C
:100080000C9465000C9465000C94650011241FBE4F
:10009000CFEFD0E4DEBFCDBF11E0A0E0B1E0E2EBF6
:1000A000F8E000E00BBF02C007900D92AE32B1073E
:1000B000D9F721E0AEE2B1E001C01D92AB33B20747
:1000C000E1F70E945F020C9457040C940000CF9358
:1000D000DF9300D01F92CDB7DEB789837B836A831D
:1000E00089818A3031F48A819B81BC018DE00E9434
:1000F000670080EC90E0FC018081882F90E08072A6
:100100009927892BB1F386EC90E02981FC012083AB
:1001100080E090E00F900F900F90DF91CF910895C5
:100120000F931F93CF93DF9300D000D0CDB7DEB7EE
:1001300069837A838B839C8380912F019091300116
:10014000A0913101B09132019C01AD0169817A81A8
:100150008B819C810E94C302882309F477C020E030
:1001600030E0A90169817A818B819C810E94C30260
:10017000882351F481E990E021E930E0F901208100
:100180002870FC01208309C081E990E021E930E07A
:10019000F90120812360FC01208328E539E344E74D
:1001A0005FE369817A818B819C810E94C3028823ED
:1001B00044F488E990E02FEF3FEFFC013183208386
:1001C00034C020E034E244EF56E469817A818B81C7
:1001D0009C810E94E503181634F488E990E0FC0144
:1001E0001182108222C008E910E020E030E040E0F7
:1001F00053E469817A818B819C810E94EA03DC014E
:10020000CB019C01AD0160E074E284EF9AE40E94AE
:10021000C802DC01CB01BC01CD010E943A03DC0124
:10022000CB010197F8019183808384E990E0FC0180
:100230001182108289819A81AB81BC8180932F01C8
:1002400090933001A0933101B093320100000F90E0
:100250000F900F900F90DF91CF911F910F91089504
:10026000CF93DF93CDB7DEB780E990E020E4FC01C7
:10027000208381E990E02BE0FC01208360E070E0C6
:10028000CB010E9490000000DF91CF910895CF93A1
:10029000DF93CDB7DEB780E990E0FC01108281E901
:1002A00090E0FC0110820000DF91CF910895CF9380
:1002B000DF93CDB7DEB78091390190913A0182305A
:1002C000910559F18330910528F4009751F0019779
:1002D00091F05EC083309105A1F1049709F443C009
:1002E00057C081E090E090933A018093390181E01A
:1002F00080932E0152C080913301843039F482E022
:1003000090E090933A018093390147C081E090E0FA
:1003100090933A018093390140C080913301843039
:1003200039F482E090E090933A018093390135C02E
:1003300083E090E090933A018093390110922E016E
:100340002CC080913301843039F484E090E09093A4
:100350003A018093390121C083E090E090933A0103
:10036000809339011AC080913301843039F484E0DC
:1003700090E090933A01809339010FC081E090E0C2
:1003800090933A018093390181E080932E0105C05A
:1003900010923A011092390100000000DF91CF91D4
:1003A0000895CF93DF93CDB7DEB78091340190915C
:1003B00035018130910599F08130910538F0823016
:1003C000910599F1039709F44FC06DC081E090E069
:1003D0009093350180933401109236016CC0809166
:1003E0003701813059F480913801882339F482E053
:1003F00090E0909335018093340116C080913701CD
:10040000882359F480913801823039F483E090E0F8
:10041000909335018093340107C081E090E0909380
:1004200035018093340147C046C080913701813047
:1004300059F480913801882339F482E090E0909358
:1004400035018093340134C081E090E09093350110
:100450008093340180913601873050F580913601C8
:100460008F5F8093360124C080913701882359F42F
:1004700080913801823039F483E090E09093350127
:100480008093340117C081E090E090933501809310
:10049000340180913601882369F0809136018150C2
:1004A0008093360107C0109235011092340103C0C9
:1004B000000001C000000000DF91CF910895CF93AC
:1004C000DF93CDB7DEB781E290E0FC01108282E2DB
:1004D00090E02FEFFC01208384E290E02FEFFC01FD
:1004E000208385E290E0FC01108210923501109289
:1004F000340110923A011092390181E080932E016B
:100500000E94300180E290E0FC018081882F90E021
:100510008170992721E0892B09F020E0822F8093B8
:10052000370180E290E0FC018081809582708093A9
:10053000380180E290E0FC01808180958470809396
:1005400033010E94D1010E94570180912E0188231E
:1005500031F460E070E0CB010E949000D3CF809135
:100560003601882F90E0880F991F880F991F825FAE
:100570009E4FFC0180819181A281B381BC01CD019C
:100580000E949000BFCF0E94700308F481E008959C
:100590000E94DC020C94AB030E94A40358F00E945A
:1005A0009D0340F029F45F3F29F00C94940351110E
:1005B0000C94DF030C949A030E94BC0368F3992304
:1005C000B1F3552391F3951B550BBB27AA2762174F
:1005D0007307840738F09F5F5F4F220F331F441F5C
:1005E000AA1FA9F335D00E2E3AF0E0E832D0915090
:1005F0005040E695001CCAF72BD0FE2F29D0660F7D
:10060000771F881FBB1F261737074807AB07B0E8BF
:1006100009F0BB0B802DBF01FF2793585F4F3AF0C5
:100620009E3F510578F00C9494030C94DF035F3FD8
:10063000E4F3983ED4F3869577956795B795F7954B
:100640009F5FC9F7880F911D9695879597F9089533
:10065000E1E0660F771F881FBB1F621773078407CF
:10066000BA0720F0621B730B840BBA0BEE1F88F7DE
:10067000E09508950E9441036894B1110C94DF0342
:1006800008950E94C40388F09F5798F0B92F9927C6
:10069000B751B0F0E1F0660F771F881F991F1AF06D
:1006A000BA95C9F714C0B13091F00E94DE03B1E0F1
:1006B00008950C94DE03672F782F8827B85F39F0F0
:1006C000B93FCCF3869577956795B395D9F73EF406
:1006D00090958095709561957F4F8F4F9F4F0895AE
:1006E000990F0008550FAA0BE0E8FEEF1616170643
:1006F000E807F907C0F012161306E407F50798F0AB
:10070000621B730B840B950B39F40A2661F0232BC3
:10071000242B252B21F408950A2609F4A140A6953F
:100720008FEF811D811D089597F99F6780E870E024
:1007300060E008959FEF80EC089500240A94161657
:10074000170618060906089500240A9412161306BF
:10075000140605060895092E0394000C11F488234D
:1007600052F0BB0F40F4BF2B11F460FF04C06F5F69
:100770007F4F8F4F9F4F089557FD9058440F551F3F
:1007800059F05F3F71F04795880F97FB991F61F013
:100790009F3F79F087950895121613061406551F8A
:1007A000F2CF4695F1DF08C0161617061806991FF6
:1007B000F1CF86957105610508940895E894BB27EB
:1007C00066277727CB0197F908950E94700308F4F4
:1007D0008FEF08950E94FD030C94AB030E949D03CC
:1007E00038F00E94A40320F0952311F00C94940398
:1007F0000C949A0311240C94DF030E94BC0370F341
:10080000959FC1F3950F50E0551F629FF001729FB5
:10081000BB27F00DB11D639FAA27F00DB11DAA1FC4
:10082000649F6627B00DA11D661F829F2227B00D11
:10083000A11D621F739FB00DA11D621F839FA00D9C
:10084000611D221F749F3327A00D611D231F849FEC
:10085000600D211D822F762F6A2F11249F57504043
:100860009AF0F1F088234AF0EE0FFF1FBB1F661FBE
:10087000771F881F91505040A9F79E3F510580F087
:100880000C9494030C94DF035F3FE4F3983ED4F39D
:10089000869577956795B795F795E7959F5FC1F72B
:1008A000FE2B880F911D9695879597F90895F894DA
:0208B000FFCF78
:1008B2000000000200000000670000000000A4D059
:1008C20082437BD49243A4D0A443719DAE430000E3
:0E08D200C4430000DC43A4F0F64300D002440F
:00000001FF
