:100000000C9446000C9465000C9465000C946500FB
:100010000C9465000C9465000C9465000C946500CC
:100020000C9465000C9465000C9465000C946500BC
:100030000C9465000C94D9000C9465000C94650038
:100040000C9465000C9465000C9465000C9465009C
:100050000C9465000C9465000C9465000C9465008C
:100060000C9465000C9465000C9465000C9465007C
:100070000C9465000C9465000C9465000C9465006C
:100080000C9465000C9465000C94650011241FBE4F
:10009000CFEFD0E4DEBFCDBF11E0A0E0B1E0E4E0FF
:1000A000F9E000E00BBF02C007900D92AA32B10741
:1000B000D9F721E0AAE2B1E001C01D92A733B2074F
:1000C000E1F70E94AF020C9480040C940000CF93DF
:1000D000DF9300D01F92CDB7DEB789837B836A831D
:1000E00089818A3031F48A819B81BC018DE00E9434
:1000F000670080EC90E0FC018081882F90E08072A6
:100100009927892BB1F386EC90E02981FC012083AB
:1001100080E090E00F900F900F90DF91CF910895C5
:10012000CF93DF93CDB7DEB781E890E02BE0FC0101
:10013000208388E890E02DE730E0FC0131832083C4
:100140008FE690E022E0FC01208380910E019091E7
:100150000F01A0911001B091110180932B01909398
:100160002C01A0932D01B0932E018FE590E02FE597
:1001700030E0F90120812068FC0120830000DF913C
:10018000CF910895CF93DF93CDB7DEB781E890E0AC
:10019000FC0110820000DF91CF910895CF93DF938F
:1001A000CDB7DEB781E080932A010000DF91CF91C7
:1001B00008951F920F9200905F000F9211240090FB
:1001C0005B000F922F933F934F935F936F937F93B7
:1001D0008F939F93AF93BF93EF93FF93CF93DF934F
:1001E000CDB7DEB780912B0190912C01A0912D010C
:1001F000B0912E010197A109B10980932B01909331
:100200002C01A0932D01B0932E0180912B01909190
:100210002C01A0912D01B0912E01892B8A2B8B2BC3
:1002200091F40E94CE0080910E0190910F01A09157
:100230001001B091110180932B0190932C01A09398
:100240002D01B0932E010000DF91CF91FF91EF912E
:10025000BF91AF919F918F917F916F915F914F91DE
:100260003F912F910F9000925B000F9000925F00E2
:100270000F901F901895CF93DF9300D000D0CDB78B
:10028000DEB769837A838B839C8389819A81AB8172
:10029000BC8180930E0190930F01A0931001B09345
:1002A000110180910E0190910F01A0911001B09168
:1002B000110180932B0190932C01A0932D01B093F9
:1002C0002E0100000F900F900F900F90DF91CF91B3
:1002D00008950F931F93CF93DF9300D000D0CDB735
:1002E000DEB769837A838B839C8380913001909100
:1002F0003101A0913201B09133019C01AD016981BE
:100300007A818B819C810E94EC02882309F477C05A
:1003100020E030E0A90169817A818B819C810E9473
:10032000EC02882351F481E990E021E930E0F90101
:1003300020812870FC01208309C081E990E021E937
:1003400030E0F90120812360FC01208328E539E3B6
:1003500044E75FE369817A818B819C810E94EC0292
:10036000882344F488E990E02FEF3FEFFC013183CC
:10037000208334C020E034E244EF56E469817A817E
:100380008B819C810E940E04181634F488E990E059
:10039000FC011182108222C008E910E020E030E068
:1003A00040E053E469817A818B819C810E9413042F
:1003B000DC01CB019C01AD0160E074E284EF9AE4C2
:1003C0000E94F102DC01CB01BC01CD010E9463035C
:1003D000DC01CB010197F8019183808384E990E0EF
:1003E000FC011182108289819A81AB81BC8180934A
:1003F000300190933101A0933201B093330100009A
:100400000F900F900F900F90DF91CF911F910F9150
:100410000895CF93DF93CDB7DEB780E990E020E475
:10042000FC01208381E990E02BE0FC01208360E067
:1004300070E0CB010E9469010000DF91CF91089527
:10044000CF93DF93CDB7DEB780E990E0FC01108257
:1004500081E990E0FC0110820000DF91CF910895C6
:10046000CF93DF93CDB7DEB7809134019091350102
:100470008130910589F08130910538F08230910505
:1004800021F1039709F44BC061C081E090E09093A3
:100490003501809334015FC010922F0160E070E05D
:1004A000CB010E94690180913601813039F482E0EC
:1004B00090E090933501809334014DC081E090E04D
:1004C000909335018093340146C080912F0186308E
:1004D000F8F480912F01882F90E0880F991F880FE2
:1004E000991F8E5E9E4FFC0180819181A281B38114
:1004F000BC01CD010E94690182E090E0909335013A
:100500008093340180912F018F5F80932F0123C04E
:1005100083E090E090933501809334011CC060E04B
:1005200070E0CB010E94690180913601813039F47D
:1005300083E090E090933501809334010CC081E01A
:1005400090E0909335018093340105C010923501FD
:100550001092340100000000DF91CF910895CF93F5
:10056000DF93CDB7DEB781E290E0FC01108282E23A
:1005700090E02FEFFC01208384E290E02FEFFC015C
:10058000208385E290E0FC011082109235011092E8
:10059000340164EF71E080E090E00E943B010E9432
:1005A00090000E94090280E290E0FC018081882F87
:1005B00090E08170992721E0892B09F020E0822FBB
:1005C000809336010E943002000080912A01882326
:1005D000E1F310922A01E7CF0E94990308F481E029
:1005E00008950E9405030C94D4030E94CD0358F093
:1005F0000E94C60340F029F45F3F29F00C94BD032C
:1006000051110C9408040C94C3030E94E50368F391
:100610009923B1F3552391F3951B550BBB27AA27BB
:1006200062177307840738F09F5F5F4F220F331FF5
:10063000441FAA1FA9F335D00E2E3AF0E0E832D0BD
:1006400091505040E695001CCAF72BD0FE2F29D0C0
:10065000660F771F881FBB1F261737074807AB0792
:10066000B0E809F0BB0B802DBF01FF2793585F4F07
:100670003AF09E3F510578F00C94BD030C940804A9
:100680005F3FE4F3983ED4F3869577956795B795E9
:10069000F7959F5FC9F7880F911D9695879597F9F4
:1006A0000895E1E0660F771F881FBB1F621773076D
:1006B0008407BA0720F0621B730B840BBA0BEE1F82
:1006C00088F7E09508950E946A036894B1110C942C
:1006D000080408950E94ED0388F09F5798F0B92F01
:1006E0009927B751B0F0E1F0660F771F881F991F67
:1006F0001AF0BA95C9F714C0B13091F00E940704FE
:10070000B1E008950C940704672F782F8827B85F0D
:1007100039F0B93FCCF3869577956795B395D9F7BE
:100720003EF490958095709561957F4F8F4F9F4FC8
:100730000895990F0008550FAA0BE0E8FEEF161672
:100740001706E807F907C0F012161306E407F507C5
:1007500098F0621B730B840B950B39F40A2661F039
:10076000232B242B252B21F408950A2609F4A140DC
:10077000A6958FEF811D811D089597F99F6780E8E9
:1007800070E060E008959FEF80EC089500240A94E3
:100790001616170618060906089500240A9412165C
:1007A0001306140605060895092E0394000C11F48F
:1007B000882352F0BB0F40F4BF2B11F460FF04C03C
:1007C0006F5F7F4F8F4F9F4F089557FD9058440F95
:1007D000551F59F05F3F71F04795880F97FB991FA0
:1007E00061F09F3F79F0879508951216130614065D
:1007F000551FF2CF4695F1DF08C0161617061806EA
:10080000991FF1CF86957105610508940895E894C4
:10081000BB2766277727CB0197F908950E94990394
:1008200008F48FEF08950E9426040C94D4030E94CC
:10083000C60338F00E94CD0320F0952311F00C94EC
:10084000BD030C94C30311240C9408040E94E50317
:1008500070F3959FC1F3950F50E0551F629FF00113
:10086000729FBB27F00DB11D639FAA27F00DB11D2C
:10087000AA1F649F6627B00DA11D661F829F2227B5
:10088000B00DA11D621F739FB00DA11D621F839F3C
:10089000A00D611D221F749F3327A00D611D231F12
:1008A000849F600D211D822F762F6A2F11249F5760
:1008B00050409AF0F1F088234AF0EE0FFF1FBB1F63
:1008C000661F771F881F91505040A9F79E3F510522
:1008D00080F00C94BD030C9408045F3FE4F3983E51
:1008E000D4F3869577956795B795F795E7959F5FCC
:1008F000C1F7FE2B880F911D9695879597F908955E
:04090000F894FFCF99
:100904000000000200000000670000000000010079
:1009140000000000DC437BD492430000C443719D7B
:0A092400AE430000C443A4D0824398
:00000001FF
