:100000000C9446000C945D000C945D000C945D0013
:100010000C945D000C945D000C945D000C945D00EC
:100020000C945D000C945D000C945D000C945D00DC
:100030000C945D000C945D000C945D000C945D00CC
:100040000C945D000C945D000C945D000C945D00BC
:100050000C945D000C945D000C945D000C945D00AC
:100060000C945D000C945D000C945D000C945D009C
:100070000C945D000C945D000C945D000C945D008C
:100080000C945D000C945D000C945D0011241FBE67
:10009000CFEFD0E4DEBFCDBF11E0A0E0B1E0E0ECF7
:1000A000F1E000E00BBF02C007900D92AE30B10747
:1000B000D9F70E9488000C94DE000C940000CF93C6
:1000C000DF9300D01F92CDB7DEB789837B836A832D
:1000D00089818A3031F48A819B81BC018DE00E9444
:1000E0005F0080EC90E0FC018081882F90E08072BE
:1000F0009927892BB1F386EC90E02981FC012083BC
:1001000080E090E00F900F900F90DF91CF910895D5
:10011000CF93DF9300D000D01F92CDB7DEB781E23E
:1001200090E0FC01108282E290E0FC01108284E207
:1001300090E0FC01108285E290E0FC01108287E2F1
:1001400090E0FC01108288E290E0FC01108280E2E5
:1001500090E0FC018081898383E290E0FC01808152
:100160008A831B821D821C821FC08981882F90E098
:1001700081709927892B19F08B818F5F8B838A81FE
:10018000882F90E081709927892B19F08B818F5FE0
:100190008B838981869589838A8186958A838C81E0
:1001A0009D8101969D838C838C819D810897E8F2C7
:1001B00088E290E02B81FC012083C9CFF894FFCF27
:0E01C00000000002000000005F0000000000D0
:00000001FF
