:100000000C9446000C945D000C945D000C945D0013
:100010000C945D000C945D000C945D000C945D00EC
:100020000C945D000C945D000C945D000C945D00DC
:100030000C945D000C945D000C945D000C945D00CC
:100040000C945D000C945D000C945D000C945D00BC
:100050000C945D000C945D000C945D000C945D00AC
:100060000C945D000C945D000C945D000C945D009C
:100070000C945D000C945D000C945D000C945D008C
:100080000C945D000C945D000C945D0011241FBE67
:10009000CFEFD0E4DEBFCDBF11E0A0E0B1E0E6E4F9
:1000A000F3E000E00BBF02C007900D92AA31B10748
:1000B000D9F70E9483010C94A1010C940000CF9306
:1000C000DF93CDB7DEB781E00E9486000000DF91AC
:1000D000CF910895CF93DF93CDB7DEB784E690E05C
:1000E0000E942A0188E30E94860086E00E94860022
:1000F0008FE00E94860081E00E9486008AE090E006
:100100000E942A010000DF91CF910895CF93DF93E1
:100110001F92CDB7DEB789838BE290E02BE230E00F
:10012000F90120812F7BFC01208388E290E0298166
:10013000FC0120838BE290E02BE230E0F90120818A
:100140002068FC01208300008BE290E02BE230E08D
:10015000F90120812F77FC01208382E090E00E944A
:100160002A0100000F90DF91CF910895CF93DF9384
:100170001F92CDB7DEB789838BE290E02BE230E0AF
:10018000F90120812064FC01208388E290E029812C
:10019000FC0120838BE290E02BE230E0F90120812A
:1001A0002068FC01208300008BE290E02BE230E02D
:1001B000F90120812F77FC01208381E090E00E94EB
:1001C0002A0100000F90DF91CF910895CF93DF9324
:1001D00000D000D0CDB7DEB78A837C836B830E94CA
:1001E0005F008A81898311C0898191E0980F99838A
:1001F0000E9413018B819C819C012F5F3F4F3C83A8
:100200002B83FC0180810E94B6008B819C81FC01C4
:100210008081882349F700000F900F900F900F9076
:10022000DF91CF910895CF93DF931F92CDB7DEB7C3
:1002300089838981813128F4898181580E948600CF
:1002400004C0898181550E94860000000F90DF91D3
:10025000CF910895CF93DF9300D000D000D0CDB7D9
:10026000DEB79E838D831A82198213C01C821B8283
:1002700006C000008B819C8101969C838B838B81BF
:100280009C8187309340ACF389819A8101969A834F
:10029000898329813A818D819E812817390734F31A
:1002A000000026960FB6F894DEBF0FBECDBFDF91DB
:1002B000CF910895CF93DF9300D01F92CDB7DEB7D3
:1002C00089837B836A8389818A3031F48A819B8127
:1002D000BC018DE00E945A0180EC90E0FC0180811D
:1002E000882F90E080729927892BB1F386EC90E0FB
:1002F0002981FC01208380E090E00F900F900F9007
:10030000DF91CF910895CF93DF93CDB7DEB787E22A
:1003100090E02FEFFC01208388E290E0FC01108246
:100320008AE290E02FEFFC0120838BE290E0FC0159
:1003300010820E946A006EE071E081E00E94E60097
:06034000FFCFF894FFCF8F
:1003460000000002000000005A010000000048659D
:0A0356006C6C6F20576F726C64002E
:00000001FF
