:100000000C9446000C9465000C9465000C946500FB
:100010000C9465000C9465000C9465000C946500CC
:100020000C9465000C9465000C9465000C946500BC
:100030000C9465000C94AB010C9465000C94650065
:100040000C9465000C9465000C9465000C9465009C
:100050000C9465000C9465000C9465000C9465008C
:100060000C9465000C9465000C9465000C9465007C
:100070000C9465000C9465000C9465000C9465006C
:100080000C9465000C9465000C94650011241FBE4F
:10009000CFEFD0E4DEBFCDBF11E0A0E0B1E0E2ECF5
:1000A000F6E000E00BBF02C007900D92A231B1074D
:1000B000D9F721E0A2E1B1E001C01D92AB31B20756
:1000C000E1F70E9412030C945F030C940000CF939D
:1000D000DF93CDB7DEB781E00E948E000000DF9194
:1000E000CF910895CF93DF93CDB7DEB784E690E04C
:1000F0000E94320188E30E948E0086E00E948E00FA
:100100008FE00E948E0081E00E948E008AE090E0E5
:100110000E9432010000DF91CF910895CF93DF93C9
:100120001F92CDB7DEB789838BE290E02BE230E0FF
:10013000F90120812F7BFC01208388E290E0298156
:10014000FC0120838BE290E02BE230E0F90120817A
:100150002068FC01208300008BE290E02BE230E07D
:10016000F90120812F77FC01208382E090E00E943A
:10017000320100000F90DF91CF910895CF93DF936C
:100180001F92CDB7DEB789838BE290E02BE230E09F
:10019000F90120812064FC01208388E290E029811C
:1001A000FC0120838BE290E02BE230E0F90120811A
:1001B0002068FC01208300008BE290E02BE230E01D
:1001C000F90120812F77FC01208381E090E00E94DB
:1001D000320100000F90DF91CF910895CF93DF930C
:1001E00000D000D0CDB7DEB78A837C836B830E94BA
:1001F00067008A81898311C0898191E0980F998372
:100200000E941B018B819C819C012F5F3F4F3C838F
:100210002B83FC0180810E94BE008B819C81FC01AC
:100220008081882349F700000F900F900F900F9066
:10023000DF91CF910895CF93DF931F92CDB7DEB7B3
:1002400089838981813128F4898181580E948E00B7
:1002500004C0898181550E948E0000000F90DF91BB
:10026000CF910895CF93DF9300D000D000D0CDB7C9
:10027000DEB79E838D831A82198213C01C821B8273
:1002800006C000008B819C8101969C838B838B81AF
:100290009C8187309340ACF389819A8101969A833F
:1002A000898329813A818D819E812817390734F30A
:1002B000000026960FB6F894DEBF0FBECDBFDF91CB
:1002C000CF910895CF93DF93CDB7DEB781E890E06B
:1002D0002BE0FC01208388E890E02DE730E0FC0172
:1002E000318320838FE690E022E0FC01208380911F
:1002F000000190910101A0910201B091030180934E
:10030000130190931401A0931501B09316018FE58A
:1003100090E02FE530E0F90120812068FC01208386
:100320000000DF91CF910895CF93DF93CDB7DEB773
:1003300081E890E0FC0110820000DF91CF910895E8
:10034000CF93DF93CDB7DEB781E080931201000039
:10035000DF91CF9108951F920F9200905F000F924E
:10036000112400905B000F922F933F934F935F9364
:100370006F937F938F939F93AF93BF93EF93FF936D
:10038000CF93DF93CDB7DEB7809113019091140125
:10039000A0911501B09116010197A109B1098093AF
:1003A000130190931401A0931501B093160180914D
:1003B000130190911401A0911501B0911601892BA0
:1003C0008A2B8B2B91F40E94A001809100019091C7
:1003D0000101A0910201B091030180931301909358
:1003E0001401A0931501B09316010000DF91CF9185
:1003F000FF91EF91BF91AF919F918F917F916F91FD
:100400005F914F913F912F910F9000925B000F9061
:1004100000925F000F901F901895CF93DF9300D04C
:1004200000D0CDB7DEB769837A838B839C838981C3
:100430009A81AB81BC818093000190930101A093CC
:100440000201B09303018091000190910101A091FC
:100450000201B09103018093130190931401A093C2
:100460001501B093160100000F900F900F900F90A0
:10047000DF91CF910895CF93DF9300D01F92CDB736
:10048000DEB789837B836A8389818A3031F48A81EC
:100490009B81BC018DE00E943B0280EC90E0FC015E
:1004A0008081882F90E080729927892BB1F386ECA8
:1004B00090E02981FC01208380E090E00F900F9074
:1004C0000F90DF91CF910895CF93DF93CDB7DEB733
:1004D00080911801909119018130910599F0813036
:1004E000910538F08230910599F1039709F45FC0C6
:1004F0008DC081E090E090931901809318011092D3
:1005000017018CC080911A01813039F482E090E0AB
:10051000909319018093180181C080911A01823053
:1005200039F483E090E0909319018093180176C02C
:1005300080911A01833029F4109219011092180148
:100540006DC081E090E0909319018093180166C01E
:1005500080911A01813039F482E090E09093190182
:10056000809318011AC080911A01823039F483E017
:1005700090E090931901809318010FC080911A01A7
:10058000833029F4109219011092180106C081E0FD
:1005900090E09093190180931801809117018930A0
:1005A000D0F5809117018F5F8093170134C080913F
:1005B0001A01813039F482E090E090931901809320
:1005C00018011AC080911A01823039F483E090E05A
:1005D00090931901809318010FC080911A01833004
:1005E00029F4109219011092180106C081E090E0E0
:1005F000909319018093180180911701882369F065
:100600008091170181508093170107C01092190142
:100610001092180103C0000001C000000000DF912B
:10062000CF910895CF93DF93CDB7DEB781E290E00D
:10063000FC01108282E290E0FC01108287E290E0EF
:100640002FEFFC01208388E290E0FC0110828AE217
:1006500090E02FEFFC0120838BE290E0FC01108200
:1006600068EE73E080E090E00E940D020E9462015B
:1006700010921A010E947200109219011092180132
:100680000E94670080E290E0FC0180818095837089
:1006900080931A010E94640288E290E02091170181
:1006A000FC01208380911701805D0E94BE00000044
:1006B000809112018823E1F310921201E1CFF894A6
:0206C000FFCF6A
:1006C2000100000000000002000000003B020000E8
:0206D200000026
:00000001FF
