:100000000C948B000C94AA000C94AA000C94AA00E7
:100010000C94AA000C94AA000C94AA000C94AA00B8
:100020000C94AA000C94AA000C94AA000C94AA00A8
:100030000C94AA000C9419020C94AA000C94AA0027
:100040000C94AA000C94AA000C94AA000C94AA0088
:100050000C94AA000C94AA000C94AA000C94AA0078
:100060000C94AA000C94AA000C94AA000C94AA0068
:100070000C94AA000C94AA000C94AA000C94AA0058
:100080000C94AA000C94AA000C94AA00F903F9039A
:10009000F903F903F903F903F903F903F903F90380
:1000A000F903F903F903F903F903F903F903F90370
:1000B000F903F903F903F903F903F903F903F90360
:1000C000F903F903F903F903F903F903F903F90350
:1000D000F903F503F903F903F903F903F903F90344
:1000E000ED03F903F903F903F903F903F103B90384
:1000F000BD03C103C503C903CD03D103D503D90390
:10010000F903F903F903F903F903F903F903DD032B
:10011000E103E503E90311241FBECFEFD0E4DEBF06
:10012000CDBF11E0A0E0B1E0E4E5FAE000E00BBFF4
:1001300002C007900D92A431B107D9F721E0A4E1E4
:10014000B1E001C01D92A432B207E1F70E9407049A
:100150000C9428050C940000CF93DF93CDB7DEB745
:1001600081E00E94D3000000DF91CF910895CF93EA
:10017000DF93CDB7DEB784E690E00E94770188E395
:100180000E94D30086E00E94D3008FE00E94D3003B
:1001900081E00E94D3008AE090E00E947701000095
:1001A000DF91CF910895CF93DF931F92CDB7DEB744
:1001B00089838BE290E02BE230E0F90120812F7BF4
:1001C000FC01208385E290E02981FC0120838BE201
:1001D00090E02BE230E0F90120812068FC012083CF
:1001E00000008BE290E02BE230E0F90120812F77D4
:1001F000FC01208382E090E00E94770100000F90D4
:10020000DF91CF910895CF93DF931F92CDB7DEB7E3
:1002100089838BE290E02BE230E0F90120812064B9
:10022000FC01208385E290E02981FC0120838BE2A0
:1002300090E02BE230E0F90120812068FC0120836E
:1002400000008BE290E02BE230E0F90120812F7773
:10025000FC01208381E090E00E94770100000F9074
:10026000DF91CF910895CF93DF9300D000D0CDB729
:10027000DEB78A837C836B830E94AC008A8189838A
:1002800011C0898191E0980F99830E9460018B8150
:100290009C819C012F5F3F4F3C832B83FC0180811D
:1002A0000E9403018B819C81FC018081882349F796
:1002B00000000F900F900F900F90DF91CF91089555
:1002C000CF93DF931F92CDB7DEB7898389818131C8
:1002D00028F4898181580E94D30004C08981815506
:1002E0000E94D30000000F90DF91CF910895CF932B
:1002F000DF9300D000D000D0CDB7DEB79E838D83D2
:100300001A82198213C01C821B8206C000008B81D6
:100310009C8101969C838B838B819C818730934049
:10032000ACF389819A8101969A83898329813A81E4
:100330008D819E812817390734F3000026960FB669
:10034000F894DEBF0FBECDBFDF91CF910895CF935C
:10035000DF9300D01F92CDB7DEB789837B836A839A
:1003600089818A3031F48A819B81BC018DE00E94B1
:10037000A70180EC90E0FC018081882F90E08072E2
:100380009927892BB1F386EC90E02981FC01208329
:1003900080E090E00F900F900F90DF91CF91089543
:1003A000CF93DF93CDB7DEB781E890E02BE0FC017F
:1003B000208388E890E02DE730E0FC013183208342
:1003C0008FE690E022E0FC01208380910E01909165
:1003D0000F01A0911001B09111018093150190932C
:1003E0001601A0931701B09318018FE590E02FE557
:1003F00030E0F90120812068FC0120830000DF91BA
:10040000CF910895CF93DF93CDB7DEB781E890E029
:10041000FC0110820000DF91CF910895CF93DF930C
:10042000CDB7DEB781E0809314010000DF91CF915A
:1004300008951F920F9200905F000F921124009078
:100440005B000F922F933F934F935F936F937F9334
:100450008F939F93AF93BF93EF93FF93CF93DF93CC
:10046000CDB7DEB78091150190911601A0911701CB
:10047000B09118010197A109B109809315019093DA
:100480001601A0931701B093180180911501909166
:100490001601A0911701B0911801892B8A2B8B2B83
:1004A00091F40E940E0280910E0190910F01A09193
:1004B0001001B09111018093150190931601A09342
:1004C0001701B09318010000DF91CF91FF91EF91D8
:1004D000BF91AF919F918F917F916F915F914F915C
:1004E0003F912F910F9000925B000F9000925F0060
:1004F0000F901F901895CF93DF9300D000D0CDB709
:10050000DEB769837A838B839C8389819A81AB81EF
:10051000BC8180930E0190930F01A0931001B093C2
:10052000110180910E0190910F01A0911001B091E5
:1005300011018093150190931601A0931701B093B8
:10054000180100000F900F900F900F90DF91CF9146
:100550000895CF93DF9300D0CDB7DEB789836A8348
:100560008A81282F30E081E090E002C0880F991F37
:100570002A95E2F7982F898189230F900F90DF91B8
:10058000CF910895CF93DF93CDB7DEB788E290E0A7
:100590002FEEFC012083000086E290E0FC018081C8
:1005A00060E00E94A902882311F481E3B8C086E2CA
:1005B00090E0FC01808161E00E94A902882311F48F
:1005C00084E3ADC086E290E0FC01808162E00E949D
:1005D000A902882311F487E3A2C086E290E0FC011F
:1005E000808163E00E94A902882311F48AE297C007
:1005F00088E290E02FEDFC012083000086E290E08D
:10060000FC01808160E00E94A902882311F482E34A
:1006100086C086E290E0FC01808161E00E94A90230
:10062000882311F485E37BC086E290E0FC018081A1
:1006300062E00E94A902882311F488E370C086E278
:1006400090E0FC01808163E00E94A902882311F4FC
:1006500080E365C088E290E02FEBFC01208300007E
:1006600086E290E0FC01808160E00E94A90288237C
:1006700011F483E354C086E290E0FC01808161E0E4
:100680000E94A902882311F486E349C086E290E023
:10069000FC01808162E00E94A902882311F489E3B1
:1006A0003EC086E290E0FC01808163E00E94A902E6
:1006B000882311F483E233C088E290E02FE7FC0145
:1006C0002083000086E290E0FC01808160E00E94CF
:1006D000A902882311F481E422C086E290E0FC01A3
:1006E000808161E00E94A902882311F482E417C08E
:1006F00086E290E0FC01808162E00E94A9028823EA
:1007000011F483E40CC086E290E0FC01808163E098
:100710000E94A902882311F484E401C080E0DF91E3
:10072000CF910895CF93DF9300D01F92CDB7DEB75E
:100730009B838A838A819B81892B11F41B821A8275
:100740000E94C20289838981882F90E0092E000CC3
:10075000AA0BBB0B40E050E024E430E0841B950B77
:100760002817390708F445C08A5B9F4FFC010C9499
:100770001F0581E3809312013DC082E38093120143
:1007800039C083E38093120135C084E38093120162
:1007900031C085E3809312012DC086E3809312015E
:1007A00029C087E38093120125C088E3809312015A
:1007B00021C089E3809312011DC081E4809312015E
:1007C00019C082E48093120115C083E48093120162
:1007D00011C084E4809312010DC08AE2809312015B
:1007E00009C080E38093120105C083E28093120167
:1007F00001C0000062E171E081E00E9433018A8162
:100800009B810F900F900F90DF91CF9108950F93E0
:100810001F93CF93DF93CDB7DEB727970FB6F8942A
:10082000DEBF0FBECDBF81E290E0FC01108282E20C
:1008300090E02FEFFC01208384E290E02FEFFC0199
:10084000208385E290E0FC01108287E290E020EFB7
:10085000FC01208388E290E02FE0FC0120838AE203
:1008600090E02FEFFC0120838BE290E0FC011082EE
:1008700089E191E09F838E8381E090E09C838B836C
:100880008FEF8D838D81809319018CE291E0A0E040
:10089000B0E080931A0190931B01A0931C01B093C8
:1008A0001D0180911A0190911B01A0911C01B09132
:1008B0001D0180931E0190931F01A0932001B0930E
:1008C000210182E993E090932301809322016CE25D
:1008D00071E080E090E00E947B020E94D0010E94C3
:1008E000B7001A8219829BC089819A81880F991F4B
:1008F0009E012F5F3F4F820F931F0596FC01808161
:100900009181FC01258136814781508589819A81B9
:10091000880F991FBE016F5F7F4F860F971F059647
:10092000FC0180819181FC0181819281A381B4814C
:10093000281739074A075B0709F044C089819A8163
:10094000880F991F9E012F5F3F4F820F931F0596BF
:10095000FC010081118189819A81880F991F9E0174
:100960002F5F3F4F820F931F0596FC01808191817D
:10097000FC012185328589819A81880F991FAE01FA
:100980004F5F5F4F840F951F0596FC018081918119
:10099000FC018081882F90E0F9010995F80180839E
:1009A00089819A81880F991F9E012F5F3F4F820F87
:1009B000931F0596FC0180819181FC0115821682AE
:1009C0001782108689819A81880F991F9E012F5F57
:1009D0003F4F820F931F0596FC0120813181898151
:1009E0009A81880F991FAE014F5F5F4F840F951F4B
:1009F0000596FC0180819181FC0185819681A7810A
:100A0000B085845D9E4FAF4FBF4FF90185839683BC
:100A1000A783B08789819A8101969A8389832981E6
:100A20003A818B819C812817390708F45DCF00003B
:100A3000809114018823E1F31092140152CFEE0F3C
:100A4000FF1F0024001C0BBE0790F691E02D0994B7
:040A5000F894FFCF48
:100A54000000000200000000A701000000000100E7
:040A6400000020006E
:00000001FF
