:100000000C9446000C9465000C9465000C946500FB
:100010000C9465000C9465000C9465000C946500CC
:100020000C9465000C9465000C9465000C946500BC
:100030000C9465000C94D9000C9465000C94650038
:100040000C9465000C9465000C9465000C9465009C
:100050000C9465000C9465000C9465000C9465008C
:100060000C9465000C9465000C9465000C9465007C
:100070000C9465000C9465000C9465000C9465006C
:100080000C9465000C9465000C94650011241FBE4F
:10009000CFEFD0E4DEBFCDBF11E0A0E0B1E0ECE5F2
:1000A000F6E000E00BBF02C007900D92A231B1074D
:1000B000D9F721E0A2E1B1E001C01D92A432B2075C
:1000C000E1F70E945D020C942C030C940000CF9386
:1000D000DF9300D01F92CDB7DEB789837B836A831D
:1000E00089818A3031F48A819B81BC018DE00E9434
:1000F000670080EC90E0FC018081882F90E08072A6
:100100009927892BB1F386EC90E02981FC012083AB
:1001100080E090E00F900F900F90DF91CF910895C5
:10012000CF93DF93CDB7DEB781E890E02BE0FC0101
:10013000208388E890E02DE730E0FC0131832083C4
:100140008FE690E022E0FC01208380910E019091E7
:100150000F01A0911001B0911101809313019093B0
:100160001401A0931501B09316018FE590E02FE5DF
:1001700030E0F90120812068FC0120830000DF913C
:10018000CF910895CF93DF93CDB7DEB781E890E0AC
:10019000FC0110820000DF91CF910895CF93DF938F
:1001A000CDB7DEB781E0809312010000DF91CF91DF
:1001B00008951F920F9200905F000F9211240090FB
:1001C0005B000F922F933F934F935F936F937F93B7
:1001D0008F939F93AF93BF93EF93FF93CF93DF934F
:1001E000CDB7DEB78091130190911401A091150154
:1001F000B09116010197A109B10980931301909361
:100200001401A0931501B0931601809113019091F0
:100210001401A0911501B0911601892B8A2B8B2B0B
:1002200091F40E94CE0080910E0190910F01A09157
:100230001001B09111018093130190931401A093C8
:100240001501B09316010000DF91CF91FF91EF915E
:10025000BF91AF919F918F917F916F915F914F91DE
:100260003F912F910F9000925B000F9000925F00E2
:100270000F901F901895CF93DF9300D000D0CDB78B
:10028000DEB769837A838B839C8389819A81AB8172
:10029000BC8180930E0190930F01A0931001B09345
:1002A000110180910E0190910F01A0911001B09168
:1002B00011018093130190931401A0931501B09341
:1002C000160100000F900F900F900F90DF91CF91CB
:1002D0000895CF93DF93CDB7DEB78091220190913F
:1002E00023018130910591F08130910530F0823009
:1002F0009105B1F00397F1F027C081E090E0909371
:10030000230180932201109219011EC082E090E027
:10031000909323018093220181E08093190114C0FE
:1003200083E090E0909323018093220182E0809308
:1003300019010AC081E090E090932301809322018B
:1003400084E08093190100000000DF91CF910895AF
:10035000CF93DF93CDB7DEB780911A0190911B0147
:100360008130910579F08130910518F0029799F06C
:100370001CC081E090E090931B0180931A011092C1
:10038000210113C082E090E090931B0180931A0139
:10039000109221010AC081E090E090931B018093AC
:1003A0001A0188E08093210100000000DF91CF91C5
:1003B0000895CF93DF93CDB7DEB780911C01909164
:1003C0001D01009719F0019751F017C081E090E0EE
:1003D00090931D0180931C01109218010EC081E0C2
:1003E00090E090931D0180931C01909119018091E0
:1003F0002101892B8093180100000000DF91CF912B
:100400000895CF93DF93CDB7DEB780911E01909111
:100410001F018130910581F08130910530F08230EB
:100420009105F1F0039789F144C081E090E0909349
:100430001F0180931E013DC080912001843039F45A
:1004400082E090E090931F0180931E0106C081E03E
:1004500090E090931F0180931E011092170129C014
:1004600080912001843039F483E090E090931F0163
:1004700080931E0106C081E090E090931F0180935D
:100480001E0180E18093170114C080912001843007
:1004900039F482E090E090931F0180931E0106C022
:1004A00081E090E090931F0180931E01109217014C
:1004B00000000000DF91CF910895CF93DF93CDB777
:1004C000DEB760970FB6F894DEBF0FBECDBF81E2F6
:1004D00090E0FC01108282E290E02FEFFC0120838B
:1004E00084E290E02FEFFC01208385E290E0FC01A4
:1004F00010821092180182E090E0A0E0B0E08D87B9
:100500009E87AF87B88B8D859E85AF85B889BC01E6
:10051000CD010E943B010E9490008CE291E0A0E09E
:10052000B0E089839A83AB83BC8388EE93E0A0E03C
:10053000B0E08D839E83AF83B88782E090E0A0E037
:10054000B0E089879A87AB87BC871092230110920D
:10055000220110921B0110921A0110921D0110929B
:100560001C0110921F0110921E0180E290E0FC011C
:100570008081809584708093200189819A81AB81EC
:10058000BC818C329140A105B10530F00E94690117
:1005900019821A821B821C828D819E81AF81B8854F
:1005A000883E9340A105B10530F00E94A8011D824C
:1005B0001E821F82188689859A85AB85BC85029725
:1005C000A105B10530F00E94010219861A861B862A
:1005D0001C860E94D90185E290E03091180120919B
:1005E0001701232BFC012083000080911201882336
:1005F000E1F31092120129853A854B855C858D8542
:100600009E85AF85B889820F931FA41FB51F898768
:100610009A87AB87BC8729813A814B815C818D8524
:100620009E85AF85B889820F931FA41FB51F89834C
:100630009A83AB83BC832D813E814F8158858D8504
:100640009E85AF85B889820F931FA41FB51F8D8328
:0C0650009E83AF83B88789CFF894FFCF5A
:10065C000000000200000000670000000000010024
:02066C0000008C
:00000001FF
