:100000000C9446000C9465000C9465000C946500FB
:100010000C9465000C9465000C9465000C946500CC
:100020000C9465000C9465000C9465000C946500BC
:100030000C9465000C94D9000C9465000C94650038
:100040000C9465000C9465000C9465000C9465009C
:100050000C9465000C9465000C9465000C9465008C
:100060000C9465000C9465000C9465000C9465007C
:100070000C9465000C9465000C9465000C9465006C
:100080000C9465000C9465000C94650011241FBE4F
:10009000CFEFD0E4DEBFCDBF11E0A0E0B1E0E8E2F9
:1000A000F5E000E00BBF02C007900D92A231B1074E
:1000B000D9F721E0A2E1B1E001C01D92A032B20760
:1000C000E1F70E9401020C9492020C940000CF937D
:1000D000DF9300D01F92CDB7DEB789837B836A831D
:1000E00089818A3031F48A819B81BC018DE00E9434
:1000F000670080EC90E0FC018081882F90E08072A6
:100100009927892BB1F386EC90E02981FC012083AB
:1001100080E090E00F900F900F90DF91CF910895C5
:10012000CF93DF93CDB7DEB781E890E02BE0FC0101
:10013000208388E890E02DE730E0FC0131832083C4
:100140008FE690E022E0FC01208380910E019091E7
:100150000F01A0911001B0911101809313019093B0
:100160001401A0931501B09316018FE590E02FE5DF
:1001700030E0F90120812068FC0120830000DF913C
:10018000CF910895CF93DF93CDB7DEB781E890E0AC
:10019000FC0110820000DF91CF910895CF93DF938F
:1001A000CDB7DEB781E0809312010000DF91CF91DF
:1001B00008951F920F9200905F000F9211240090FB
:1001C0005B000F922F933F934F935F936F937F93B7
:1001D0008F939F93AF93BF93EF93FF93CF93DF934F
:1001E000CDB7DEB78091130190911401A091150154
:1001F000B09116010197A109B10980931301909361
:100200001401A0931501B0931601809113019091F0
:100210001401A0911501B0911601892B8A2B8B2B0B
:1002200091F40E94CE0080910E0190910F01A09157
:100230001001B09111018093130190931401A093C8
:100240001501B09316010000DF91CF91FF91EF915E
:10025000BF91AF919F918F917F916F915F914F91DE
:100260003F912F910F9000925B000F9000925F00E2
:100270000F901F901895CF93DF9300D000D0CDB78B
:10028000DEB769837A838B839C8389819A81AB8172
:10029000BC8180930E0190930F01A0931001B09345
:1002A000110180910E0190910F01A0911001B09168
:1002B00011018093130190931401A0931501B09341
:1002C000160100000F900F900F900F90DF91CF91CB
:1002D0000895CF93DF93CDB7DEB780911E01909143
:1002E0001F018130910591F08130910530F082300D
:1002F0009105B1F00397F1F027C081E090E0909371
:100300001F0180931E01109218011EC082E090E030
:1003100090931F0180931E0181E08093180114C007
:1003200083E090E090931F0180931E0182E0809310
:1003300018010AC081E090E090931F0180931E0194
:1003400084E08093180100000000DF91CF910895B0
:10035000CF93DF93CDB7DEB78091190190911A0149
:100360008130910579F08130910518F0029799F06C
:100370001CC081E090E090931A01809319011092C3
:100380001D0113C082E090E090931A01809319013F
:1003900010921D010AC081E090E090931A018093B1
:1003A000190188E080931D0100000000DF91CF91CA
:1003B0000895CF93DF93CDB7DEB780911B01909165
:1003C0001C01009719F0019751F017C081E090E0EF
:1003D00090931C0180931B01109217010EC081E0C5
:1003E00090E090931C0180931B01909118018091E3
:1003F0001D01892B8093170100000000DF91CF9130
:100400000895CF93DF93CDB7DEB72C970FB6F8944E
:10041000DEBF0FBECDBF84E290E02FEFFC01208352
:1004200085E290E0FC0110821092170184E690E0D2
:10043000A0E0B0E089879A87AB87BC8789859A85D9
:10044000AB85BC85BC01CD010E943B010E949000A0
:100450008CE291E0A0E0B0E089839A83AB83BC8317
:1004600088EE93E0A0E0B0E08D839E83AF83B887F1
:1004700010921F0110921E0110921A011092190180
:1004800010921C0110921B0189819A81AB81BC8161
:100490008C329140A105B10530F00E9469011982AA
:1004A0001A821B821C828D819E81AF81B885883E15
:1004B0009340A105B10530F00E94A8011D821E8263
:1004C0001F8218860E94D90185E290E020911701D1
:1004D000FC0120830000809112018823E1F3109237
:1004E000120129813A814B815C8189859A85AB858E
:1004F000BC85820F931FA41FB51F89839A83AB838A
:10050000BC832D813E814F81588589859A85AB8535
:10051000BC85820F931FA41FB51F8D839E83AF835D
:08052000B887B2CFF894FFCFB9
:100528000000000200000000670000000000010059
:020538000000C1
:00000001FF
