:100000000C9446000C9465000C9465000C946500FB
:100010000C9465000C9465000C9465000C946500CC
:100020000C9465000C9465000C9465000C946500BC
:100030000C9465000C94D4010C9465000C9465003C
:100040000C9465000C9465000C9465000C9465009C
:100050000C9465000C9465000C9465000C9465008C
:100060000C9465000C9465000C9465000C9465007C
:100070000C9465000C9465000C9465000C9465006C
:100080000C9465000C9465000C94650011241FBE4F
:10009000CFEFD0E4DEBFCDBF11E0A0E0B1E0E8E4F7
:1000A000FCE000E00BBF02C007900D92AC31B1073D
:1000B000D9F721E0ACE1B1E001C01D92A132B20755
:1000C000E1F70E9475020C9422060C940000CF9375
:1000D000DF93CDB7DEB781E00E948E000000DF9194
:1000E000CF910895CF93DF93CDB7DEB784E690E04C
:1000F0000E94320188E30E948E0086E00E948E00FA
:100100008FE00E948E0081E00E948E008AE090E0E5
:100110000E9432010000DF91CF910895CF93DF93C9
:100120001F92CDB7DEB789838BE290E02BE230E0FF
:10013000F90120812F7BFC01208385E290E0298159
:10014000FC0120838BE290E02BE230E0F90120817A
:100150002068FC01208300008BE290E02BE230E07D
:10016000F90120812F77FC01208382E090E00E943A
:10017000320100000F90DF91CF910895CF93DF936C
:100180001F92CDB7DEB789838BE290E02BE230E09F
:10019000F90120812064FC01208385E290E029811F
:1001A000FC0120838BE290E02BE230E0F90120811A
:1001B0002068FC01208300008BE290E02BE230E01D
:1001C000F90120812F77FC01208381E090E00E94DB
:1001D000320100000F90DF91CF910895CF93DF930C
:1001E00000D000D0CDB7DEB78A837C836B830E94BA
:1001F00067008A81898311C0898191E0980F998372
:100200000E941B018B819C819C012F5F3F4F3C838F
:100210002B83FC0180810E94BE008B819C81FC01AC
:100220008081882349F700000F900F900F900F9066
:10023000DF91CF910895CF93DF931F92CDB7DEB7B3
:1002400089838981813128F4898181580E948E00B7
:1002500004C0898181550E948E0000000F90DF91BB
:10026000CF910895CF93DF9300D000D000D0CDB7C9
:10027000DEB79E838D831A82198213C01C821B8273
:1002800006C000008B819C8101969C838B838B81AF
:100290009C8187309340ACF389819A8101969A833F
:1002A000898329813A818D819E812817390734F30A
:1002B000000026960FB6F894DEBF0FBECDBFDF91CB
:1002C000CF910895CF93DF9300D01F92CDB7DEB7C3
:1002D00089837B836A8389818A3031F48A819B8117
:1002E000BC018DE00E94620180EC90E0FC01808105
:1002F000882F90E080729927892BB1F386EC90E0EB
:100300002981FC01208380E090E00F900F900F90F6
:10031000DF91CF910895CF93DF93CDB7DEB781E81A
:1003200090E02BE0FC01208388E890E02DE730E0AE
:10033000FC01318320838FE690E022E0FC012083E2
:1003400080910E0190910F01A0911001B0911101C7
:1003500080931D0190931E01A0931F01B093200173
:100360008FE590E02FE530E0F90120812068FC0165
:1003700020830000DF91CF910895CF93DF93CDB715
:10038000DEB781E890E0FC0110820000DF91CF91A0
:100390000895CF93DF93CDB7DEB781E080931C0142
:1003A0000000DF91CF9108951F920F9200905F009F
:1003B0000F92112400905B000F922F933F934F9365
:1003C0005F936F937F938F939F93AF93BF93EF93BD
:1003D000FF93CF93DF93CDB7DEB780911D0190914E
:1003E0001E01A0911F01B09120010197A109B1093F
:1003F00080931D0190931E01A0931F01B0932001D3
:1004000080911D0190911E01A0911F01B0912001CA
:10041000892B8A2B8B2B91F40E94C90180910E01AC
:1004200090910F01A0911001B091110180931D01D5
:1004300090931E01A0931F01B09320010000DF9153
:10044000CF91FF91EF91BF91AF919F918F917F914C
:100450006F915F914F913F912F910F9000925B00B0
:100460000F9000925F000F901F901895CF93DF932D
:1004700000D000D0CDB7DEB769837A838B839C83AD
:1004800089819A81AB81BC8180930E0190930F0189
:10049000A0931001B093110180910E0190910F0172
:1004A000A0911001B091110180931D0190931E0144
:1004B000A0931F01B093200100000F900F900F90A8
:1004C0000F90DF91CF910895CF93DF93CDB7DEB733
:1004D0008AE790E02AE730E0F9012081206EFC01F4
:1004E00020830000DF91CF910895CF93DF93CDB7A4
:1004F000DEB768970FB6F894DEBF0FBECDBF84E2BB
:1005000090E02FEFFC01208385E290E0FC01108257
:1005100087E290E0FC01108288E290E02FEFFC017E
:1005200020838AE290E02FEFFC0120838BE290E0B1
:10053000FC0110826CE271E080E090E00E943602E3
:100540000E948B010E9472000E94640285E0E2E139
:10055000F1E0DE011F9601900D928A95E1F725E00A
:10056000CE014496FC01322F11923A95E9F7198297
:10057000198286E290E0FC018081882F90E08170F2
:10058000992721E0892B09F020E02A8386E290E078
:10059000FC018081809582708B8386E290E0FC0173
:1005A0008081809584708C838A81813019F489815F
:1005B000816089838B81823019F48981826089838B
:1005C0008C81843019F48981846089838BE290E086
:1005D0002981FC01208388E790E0FC0180819181E2
:1005E000CC01A0E0B0E0BC01CD010E94CC04DC0154
:1005F000CB018D839E83AF83B8872D813E814F8150
:1006000058856AE979E28EED94E40E94B703DC0133
:10061000CB0121EF38E643E65CE3BC01CD010E944B
:100620005A05DC01CB012BED38E14DEE52E4BC0163
:10063000CD010E94B803DC01CB01BC01CD010E94B9
:10064000CD05DC01CB019C01AD016FE375E38EE2CA
:1006500091E40E94B703DC01CB0121EF38E643EEC1
:100660005BEBBC01CD010E942404DC01CB0120E046
:1006700030E040EF51E4BC01CD010E94B803DC0141
:10068000CB0120E030E041E053E4BC01CD010E9409
:10069000B703DC01CB0189879A87AB87BC8720E051
:1006A00030E040E251E469857A858B859C850E9423
:1006B0002404DC01CB0120E030E040E452E4BC0142
:1006C000CD010E94B803DC01CB01BC01CD010E9429
:1006D0009D04DC01CB018D8769857A858B859C859E
:1006E0000E949604DC01CB012AE030E0B9010E94AF
:1006F0008F03805D8E878D858F878E85888B83E4C1
:100700008A8BCE010F96BC0181E00E94EE000000B2
:1007100080911C018823E1F310921C0129CF97FBE3
:10072000072E16F4009407D077FD09D00E94A3038A
:1007300007FC05D03EF4909581959F4F08957095E4
:1007400061957F4F0895AA1BBB1B51E107C0AA1FEB
:10075000BB1FA617B70710F0A61BB70B881F991F62
:100760005A95A9F780959095BC01CD0108955058F0
:10077000BB27AA270E94CF030C9420050E941205D4
:1007800038F00E94190520F039F49F3F19F426F43F
:100790000C940F050EF4E095E7FB0C940905E92F86
:1007A0000E94310558F3BA1762077307840795074B
:1007B00020F079F4A6F50C9453050EF4E0950B2E79
:1007C000BA2FA02D0B01B90190010C01CA01A001A3
:1007D0001124FF27591B99F0593F50F4503E68F1FE
:1007E0001A16F040A22F232F342F4427585FF3CF3F
:1007F000469537952795A795F0405395C9F77EF410
:100800001F16BA0B620B730B840BBAF09150A1F058
:10081000FF0FBB1F661F771F881FC2F70EC0BA0FDE
:10082000621F731F841F48F4879577956795B79566
:10083000F7959E3F08F0B0CF9395880F08F0992761
:10084000EE0F9795879508950E9438040C94200523
:100850000E94190558F00E94120540F029F45F3FEC
:1008600029F00C94090551110C9454050C940F05B2
:100870000E94310568F39923B1F3552391F3951B39
:10088000550BBB27AA2762177307840738F09F5FB1
:100890005F4F220F331F441FAA1FA9F335D00E2E1E
:1008A0003AF0E0E832D091505040E695001CCAF78B
:1008B0002BD0FE2F29D0660F771F881FBB1F26174E
:1008C00037074807AB07B0E809F0BB0B802DBF0125
:1008D000FF2793585F4F3AF09E3F510578F00C94F4
:1008E00009050C9454055F3FE4F3983ED4F38695D4
:1008F00077956795B795F7959F5FC9F7880F911D15
:100900009695879597F90895E1E0660F771F881F00
:10091000BB1F621773078407BA0720F0621B730BB3
:10092000840BBA0BEE1F88F7E09508950E949D0492
:100930006894B1110C94540508950E94390588F00B
:100940009F5798F0B92F9927B751B0F0E1F0660F93
:10095000771F881F991F1AF0BA95C9F714C0B130D4
:1009600091F00E945305B1E008950C945305672F50
:10097000782F8827B85F39F0B93FCCF38695779503
:100980006795B395D9F73EF49095809570956195EC
:100990007F4F8F4F9F4F0895E89409C097FB3EF417
:1009A00090958095709561957F4F8F4F9F4F9923BC
:1009B000A9F0F92F96E9BB279395F695879577953A
:1009C0006795B795F111F8CFFAF4BB0F11F460FFFA
:1009D0001BC06F5F7F4F8F4F9F4F16C0882311F052
:1009E00096E911C0772321F09EE8872F762F05C066
:1009F000662371F096E8862F70E060E02AF09A9501
:100A0000660F771F881FDAF7880F9695879597F9F5
:100A1000089597F99F6780E870E060E008959FEF80
:100A200080EC089500240A94161617061806090685
:100A3000089500240A941216130614060506089554
:100A4000092E0394000C11F4882352F0BB0F40F4DC
:100A5000BF2B11F460FF04C06F5F7F4F8F4F9F4F1C
:100A6000089557FD9058440F551F59F05F3F71F09E
:100A70004795880F97FB991F61F09F3F79F0879505
:100A80000895121613061406551FF2CF4695F1DF8E
:100A900008C0161617061806991FF1CF869571051E
:100AA000610508940895E894BB2766277727CB0152
:100AB00097F908950E946D050C9420050E94120577
:100AC00038F00E94190520F0952311F00C940905C7
:100AD0000C940F0511240C9454050E94310570F3F9
:100AE000959FC1F3950F50E0551F629FF001729FD3
:100AF000BB27F00DB11D639FAA27F00DB11DAA1FE2
:100B0000649F6627B00DA11D661F829F2227B00D2E
:100B1000A11D621F739FB00DA11D621F839FA00DB9
:100B2000611D221F749F3327A00D611D231F849F09
:100B3000600D211D822F762F6A2F11249F57504060
:100B40009AF0F1F088234AF0EE0FFF1FBB1F661FDB
:100B5000771F881F91505040A9F79E3F510580F0A4
:100B60000C9409050C9454055F3FE4F3983ED4F3CC
:100B7000869577956795B795F795E7959F5FC1F748
:100B8000FE2B880F911D9695879597F9089519F476
:100B900016F40C940F050C940D060E943905B8F359
:100BA0009923C9F3B6F39F57550B87FF0E941B0685
:100BB0000024A0E640EA900180585695979528F4C5
:100BC000805C660F771F881F20F0261737074807BD
:100BD00030F4621B730B840B202931294A2BA69514
:100BE00017940794202531254A2758F7660F771F59
:100BF000881F20F026173707480730F4620B730B65
:100C0000840B200D311D411DA09581F7B901842F62
:100C10009158880F9695879508959F3F31F0915090
:100C200020F4879577956795B795880F911D9695D0
:100C3000879597F9089591505040660F771F881F48
:080C4000D2F70895F894FFCFEC
:100C48000000000200000000620100000000010036
:0C0C580000002020202000000000000010
:00000001FF
