:100000000C9451000C9470000C9470000C947000CF
:100010000C9470000C9470000C9470000C947000A0
:100020000C9470000C9470000C9470000C94700090
:100030000C9470000C94DF010C9470000C94700010
:100040000C9470000C9470000C9470000C94700070
:100050000C9470000C9470000C9470000C94700060
:100060000C9470000C9470000C9470000C94700050
:100070000C9470000C9470000C9470000C94700040
:100080000C9470000C9470000C947000A603C903CB
:10009000E3030604F6037504A204BE04D104FE04BF
:1000A000110511241FBECFEFD0E4DEBFCDBF12E09B
:1000B000A0E0B1E0E6E2F8E100E00BBF02C007908B
:1000C0000D92A030B107D9F722E0A0E0B2E001C064
:1000D0001D92AC34B207E1F70E9429070C94110C71
:1000E0000C940000CF93DF93CDB7DEB781E00E9480
:1000F00099000000DF91CF910895CF93DF93CDB7A2
:10010000DEB784E690E00E943D0188E30E949900FA
:1001100086E00E9499008FE00E94990081E00E9491
:1001200099008AE090E00E943D010000DF91CF91AC
:100130000895CF93DF931F92CDB7DEB789838BE20B
:1001400090E02BE230E0F90120812F7BFC0120833D
:1001500085E290E02981FC0120838BE290E02BE294
:1001600030E0F90120812068FC01208300008BE24F
:1001700090E02BE230E0F90120812F77FC01208311
:1001800082E090E00E943D0100000F90DF91CF914E
:100190000895CF93DF931F92CDB7DEB789838BE2AB
:1001A00090E02BE230E0F90120812064FC01208303
:1001B00085E290E02981FC0120838BE290E02BE234
:1001C00030E0F90120812068FC01208300008BE2EF
:1001D00090E02BE230E0F90120812F77FC012083B1
:1001E00081E090E00E943D0100000F90DF91CF91EF
:1001F0000895CF93DF9300D000D0CDB7DEB78A83C8
:100200007C836B830E9472008A81898311C08981FB
:1002100091E0980F99830E9426018B819C819C011B
:100220002F5F3F4F3C832B83FC0180810E94C900DC
:100230008B819C81FC018081882349F700000F900D
:100240000F900F900F90DF91CF910895CF93DF9390
:100250001F92CDB7DEB789838981813128F48981E6
:1002600081580E94990004C0898181550E9499009B
:1002700000000F90DF91CF910895CF93DF9300D0CE
:1002800000D000D0CDB7DEB79E838D831A8219824D
:1002900013C01C821B8206C000008B819C810196CA
:1002A0009C838B838B819C8187309340ACF38981C5
:1002B0009A8101969A83898329813A818D819E81D1
:1002C0002817390734F3000026960FB6F894DEBFDE
:1002D0000FBECDBFDF91CF910895CF93DF9300D0B4
:1002E0001F92CDB7DEB789837B836A8389818A3089
:1002F00031F48A819B81BC018DE00E946D0180EC0C
:1003000090E0FC018081882F90E080729927892BF2
:10031000B1F386EC90E02981FC01208380E090E03D
:100320000F900F900F90DF91CF910895CF93DF93AF
:10033000CDB7DEB781E890E02BE0FC01208388E8B0
:1003400090E02DE730E0FC01318320838FE690E0E0
:1003500022E0FC01208380910E0190910F01A09179
:100360001001B09111018093010290930202A093B9
:100370000302B09304028FE590E02FE530E0F9012D
:1003800020812068FC0120830000DF91CF91089537
:10039000CF93DF93CDB7DEB781E890E0FC01108208
:1003A0000000DF91CF910895CF93DF93CDB7DEB7F3
:1003B00081E0809300020000DF91CF9108951F92A9
:1003C0000F9200905F000F92112400905B000F923B
:1003D0002F933F934F935F936F937F938F939F934D
:1003E000AF93BF93EF93FF93CF93DF93CDB7DEB778
:1003F0008091010290910202A0910302B091040247
:100400000197A109B1098093010290930202A09380
:100410000302B09304028091010290910202A09124
:100420000302B0910402892B8A2B8B2B91F40E943A
:10043000D40180910E0190910F01A0911001B09113
:1004400011018093010290930202A0930302B093E2
:1004500004020000DF91CF91FF91EF91BF91AF9126
:100460009F918F917F916F915F914F913F912F91CC
:100470000F9000925B000F9000925F000F901F9012
:100480001895CF93DF9300D000D0CDB7DEB7698346
:100490007A838B839C8389819A81AB81BC81809391
:1004A0000E0190930F01A0931001B0931101809160
:1004B0000E0190910F01A0911001B0911101809354
:1004C000010290930202A0930302B0930402000081
:1004D0000F900F900F900F90DF91CF910895CF93D1
:1004E000DF9300D000D0CDB7DEB78AE0E6E5F1E0DB
:1004F000A2E3B1E001900D928A95E1F71A82198288
:1005000011C089819A818E5C9E4FFC012081898176
:100510009A818E5E9E4FFC01208389819A8101968B
:100520009A83898389819A8109975CF381E1E0E666
:10053000F1E0A2E3B1E001900D928A95E1F71C820F
:100540001B8212C08B819C8140962B813C812E5C4A
:100550003E4FF90120818E5E9E4FFC0120838B81EE
:100560009C8101969C838B838B819C81409754F363
:1005700000000F900F900F900F90DF91CF91089592
:10058000CF93DF9300D000D0CDB7DEB78DE0E1E7A9
:10059000F1E0A2E3B1E001900D928A95E1F71A82B1
:1005A000198211C089819A818E5C9E4FFC01208145
:1005B00089819A818E5E9E4FFC01208389819A8178
:1005C00001969A83898389819A810C975CF38DE0E7
:1005D000EEE7F1E0A2E3B1E001900D928A95E1F738
:1005E0001C821B8212C08B819C8140962B813C8196
:1005F0002E5C3E4FF90120818E5E9E4FFC012083D0
:100600008B819C8101969C838B838B819C810C9731
:1006100054F300000F900F900F900F90DF91CF9147
:100620000895CF93DF9300D000D0CDB7DEB781E13E
:10063000EBE8F1E0A2E3B1E001900D928A95E1F7D9
:1006400080914B02882339F08FE480933F018EE440
:100650008093400109C08FE480933F0186E480933A
:10066000400186E4809341011A82198211C0898178
:100670009A818E5C9E4FFC01208189819A818E5ED9
:100680009E4FFC01208389819A8101969A838983F8
:1006900089819A8140975CF381E1ECE9F1E0A2E382
:1006A000B1E001900D928A95E1F780913F0281308F
:1006B00039F48FE480933F018EE48093400109C0B8
:1006C0008FE480933F0186E48093400186E4809329
:1006D00041011C821B8212C08B819C8140962B8120
:1006E0003C812E5C3E4FF90120818E5E9E4FFC01C5
:1006F00020838B819C8101969C838B838B819C8141
:10070000409754F300000F900F900F900F90DF91DF
:10071000CF910895CF93DF9300D0CDB7DEB79A8302
:10072000898389819A81092E000CAA0BBB0B40E0BA
:1007300050E02AE030E0841B950B2817390708F4B5
:100740007CC18A5B9F4FFC010C945B090E946F0285
:100750008EE38093120180914602882339F48091C0
:100760004802882319F41A8219826AC180914602CC
:10077000882329F082E090E09A83898361C1809187
:100780004802882309F45CC181E090E09A83898360
:1007900057C10E946F028EE38093220180913D0237
:1007A000882319F01A8219824EC18091460288234B
:1007B00029F084E090E09A83898345C181E090E04C
:1007C0009A83898340C10E94C00280914602882397
:1007D00029F082E090E09A83898335C183E090E03C
:1007E0009A83898381E0809340022DC10E94110386
:1007F00080914602882329F084E090E09A838983DF
:1008000022C185E090E09A8389831DC10E94C002C5
:100810008091520190915301A0915401B0915501E2
:1008200020E030E040E251E4BC01CD010E94EA0941
:10083000DC01CB0120E030E040E452E4BC01CD011A
:100840000E947909DC01CB01BC01CD010E94630A41
:10085000DC01CB01809349028091520190915301B8
:10086000A0915401B0915501BC01CD010E945C0AD8
:10087000DC01CB012AE030E0B9010E944709805D2C
:100880008093470283E480933101809149028093F1
:100890002E018091470280932F0110923E02109208
:1008A000450280913D02882321F081E080933E0241
:1008B00007C080914802882319F081E080934502A7
:1008C00080914602882329F483E090E09A8389830B
:1008D000B9C080914602882309F4B4C08AE090E050
:1008E0009A83898310924002ADC00E9411038EE367
:1008F0008093120180914802882329F087E090E0DC
:100900009A838983A0C080914602882379F08091E0
:100910004B02882319F010924B0203C081E08093B0
:100920004B0286E090E09A8389838DC080913D02DE
:10093000882319F01A82198286C085E090E09A8394
:10094000898381C00E9411038EE3809312018091FC
:100950004602882329F086E090E09A83898373C059
:1009600080914802882329F086E090E09A83898369
:100970006AC085E090E09A83898365C00E94110374
:100980008EE38093220180914802882329F087E03A
:1009900090E09A83898357C088E090E09A838983A6
:1009A00052C00E9411038EE380932201809146027F
:1009B000882379F080913F02882319F010923F023A
:1009C00003C081E080933F0289E090E09A838983AD
:1009D0003AC080914802882329F086E090E09A830B
:1009E000898331C080913D02882319F01A821982CF
:1009F0002AC088E090E09A83898325C00E94110371
:100A00008EE38093220180914602882329F089E0B9
:100A100090E09A83898317C088E090E09A83898365
:100A200012C080914602882329F08AE090E09A83E0
:100A3000898309C01A82198206C01A82198203C0EA
:100A4000000001C0000089819A810F900F90DF9112
:100A5000CF910895CF93DF9300D0CDB7DEB79A83BF
:100A6000898389819A81892B09F0AAC01A82198207
:100A700088E790E0FC0180819181CC01A0E0B0E0AA
:100A8000BC01CD010E94920ADC01CB019C01AD01A9
:100A90006AE979E28EED94E40E947809DC01CB01E9
:100AA00021EF38E643E65CE3BC01CD010E94490B2F
:100AB000DC01CB012BED38E14DEE52E4BC01CD0160
:100AC0000E947909DC01CB01BC01CD010E94BC0B65
:100AD000DC01CB019C01AD016FE375E38EE291E493
:100AE0000E947809DC01CB0121EF38E643EE5BEB95
:100AF000BC01CD010E94EA09DC01CB0120E030E01D
:100B000040EF51E4BC01CD010E947909DC01CB0129
:100B100020E030E041E053E4BC01CD010E947809BF
:100B2000DC01CB018093410290934202A0934302E7
:100B3000B09344028091410290914202A0914302FD
:100B4000B091440220E030E040E251E4BC01CD012C
:100B50000E94EA09DC01CB0120E030E040E452E4ED
:100B6000BC01CD010E947909DC01CB01BC01CD01A2
:100B70000E94630ADC01CB0180934902809141020B
:100B800090914202A0914302B0914402BC01CD0178
:100B90000E945C0ADC01CB012AE030E0B9010E942E
:100BA0004709805D8093470283E48093210180910F
:100BB000490280931E018091470280931F0103C068
:100BC0001A821982000089819A810F900F90DF911B
:100BD000CF910895CF93DF9300D01F92CDB7DEB7AA
:100BE0009B838A838A819B81892B91F41B821A8241
:100BF00086E290E0FC018081807889838981803859
:100C000021F481E080934A0206C010924A0203C098
:100C10001B821A8200008A819B810F900F900F9097
:100C2000DF91CF910895CF93DF9300D01F92CDB77E
:100C3000DEB79B838A8386E290E0FC018081809509
:100C4000877089838A819B8181309105A1F18230EF
:100C500091051CF4892B39F048C082309105F1F0E0
:100C60000397B1F142C08981823029F482E090E09B
:100C70009B838A833DC08981843029F481E090E0A0
:100C80009B838A8335C08981813029F483E090E099
:100C90009B838A832DC01B821A822AC08981882364
:100CA00029F41B821A821092480222C082E090E04E
:100CB0009B838A831DC08981882329F41B821A8221
:100CC00010923D0215C081E090E09B838A8310C0A2
:100CD0008981882329F41B821A821092460208C057
:100CE00083E090E09B838A8303C01B821A8200000A
:100CF0008A819B818230910531F08330910559F0D2
:100D0000019729F00CC082E08093480208C084E07B
:100D100080933D0204C081E08093460200008A81F6
:100D20009B810F900F900F90DF91CF910895CF93FB
:100D3000DF9300D0CDB7DEB79A83898389819A810A
:100D4000892B09F06BC080913E02882389F1809144
:100D5000520190915301A0915401B091550120E0AE
:100D600030E048EC52E4BC01CD010E94E509882343
:100D7000FCF4809140028823D9F080915201909137
:100D80005301A0915401B091550120E030E040E8BA
:100D90005FE3BC01CD010E947909DC01CB018093A6
:100DA000520190935301A0935401B093550133C065
:100DB00080914502882379F18091520190915301ED
:100DC000A0915401B091550120E030E0A901BC018F
:100DD000CD010E94440B1816F4F480914002882340
:100DE000D1F08091520190915301A0915401B091A2
:100DF000550120E030E040E85FE3BC01CD010E94F6
:100E00007809DC01CB018093520190935301A093A8
:100E10005401B09355011A82198203C01A821982B3
:100E2000000089819A810F900F90DF91CF910895F2
:100E3000CF93DF93CDB7DEB78AE790E02AE730E0C3
:100E4000F9012081206EFC0120830000DF91CF9109
:100E500008950F931F93CF93DF93CDB7DEB7E0973D
:100E60000FB6F894DEBF0FBECDBF84E290E02FEF47
:100E7000FC01208385E290E0FC01108287E290E093
:100E8000FC01108288E290E02FE7FC0120838AE2D7
:100E900090E02FEFFC0120838BE290E0FC011082B8
:100EA0008AE0E4EDF1E0DE01179601900D928A955B
:100EB000E1F785E090E09D838C838FEF8E838E81B8
:100EC0008093060288EC90E0A0E0B0E080930702F7
:100ED00090930802A0930902B0930A02809107023E
:100EE00090910802A0910902B0910A0280930B022E
:100EF00090930C02A0930D02B0930E0283E196E052
:100F00009093100280930F028E818093110288ECDF
:100F100090E0A0E0B0E08093120290931302A093BF
:100F20001402B09315028091120290911302A091C5
:100F30001402B09115028093160290931702A093A9
:100F40001802B09319028AEE95E090931B028093E9
:100F50001A028E8180931C0284E690E0A0E0B0E04B
:100F600080931D0290931E02A0931F02B093200253
:100F700080911D0290911E02A0911F02B09120024B
:100F80008093210290932202A0932302B093240223
:100F90008AE295E090932602809325028E818093C9
:100FA000270284E690E0A0E0B0E0809328029093CE
:100FB0002902A0932A02B0932B02809128029091DB
:100FC0002902A0912A02B0912B0280932C029093C7
:100FD0002D02A0932E02B0932F028AE893E0909303
:100FE0003102809330028E818093320284EF91E04F
:100FF000A0E0B0E08093330290933402A0933502D6
:10100000B09336028091330290913402A091350260
:10101000B09136028093370290933802A093390240
:10102000B0933A0287E996E090933C0280933B02AA
:1010300064E670E080E090E00E9441020E94960128
:101040000E947D000E94180780E2EEEDF1E0DE01D3
:10105000519601900D928A95E1F71B8214C08B8105
:10106000882F90E02B81222F30E02E5E3E4FF90139
:1010700040819E012F5E3F4F820F931FFC014083F2
:101080008B818F5F8B838B81803248F387E2EDEA1F
:10109000F1E0A2E1B1E001900D928A95E1F71982A9
:1010A000A1C08981882F90E0880F991F9E012F5F32
:1010B0003F4F820F931F0696FC0180819181FC01B6
:1010C00025813681478150858981882F90E0880F5E
:1010D000991FBE016F5F7F4F860F971F0696FC0119
:1010E00080819181FC0181819281A381B481281743
:1010F00039074A075B0709F048C08981882F90E0CB
:10110000880F991F9E012F5F3F4F820F931F0696F6
:10111000FC01008111818981882F90E0880F991F3F
:101120009E012F5F3F4F820F931F0696FC01808127
:101130009181FC01218532858981882F90E0880F7B
:10114000991FAE014F5F5F4F840F951F0696FC01FC
:1011500080819181FC018081882F90E0F9010995BF
:10116000F80180838981882F90E0880F991F9E0164
:101170002F5F3F4F820F931F0696FC018081918164
:10118000FC0115821682178210868981882F90E0D3
:10119000880F991F9E012F5F3F4F820F931F069666
:1011A000FC01208131818981882F90E0880F991F6F
:1011B000AE014F5F5F4F840F951F0696FC01808143
:1011C0009181FC0185819681A781B0858C599F4FC3
:1011D000AF4FBF4FF90185839683A783B08789817D
:1011E0008F5F89838981282F30E08C819D8128172A
:1011F000390708F456CF1092050280914A028823DD
:1012000019F088E0809305029091050280914802D0
:10121000982B80914602982B80913D02892B8093D8
:1012200005028BE290E020910502FC0120831A82E6
:1012300023C08A818F5F0E9426018A81882F90E0D7
:101240009E012F5E3F4F820F931FFC0120818A81F8
:10125000882F90E08E5E9E4FFC018081281749F018
:101260008A81882F90E08E5E9E4FFC0180810E94D3
:10127000C9008A818F5F8A838A818032D0F2000020
:10128000809100028823E1F310920002E6CE97FBE2
:10129000072E16F4009407D077FD09D00E94640948
:1012A00007FC05D03EF4909581959F4F0895709569
:1012B00061957F4F0895EE0FFF1F0024001C0BBEA9
:1012C0000790F691E02D0994AA1BBB1B51E107C0C2
:1012D000AA1FBB1FA617B70710F0A61BB70B881FC6
:1012E000991F5A95A9F780959095BC01CD01089555
:1012F0005058BB27AA270E9490090C940A0B0E9401
:10130000FC0A38F00E94030B20F039F49F3F19F4D7
:1013100026F40C94F90A0EF4E095E7FB0C94F30A1A
:10132000E92F0E941B0B58F3BA1762077307840753
:10133000950720F079F4A6F50C943D0B0EF4E0959A
:101340000B2EBA2FA02D0B01B90190010C01CA017F
:10135000A0011124FF27591B99F0593F50F4503E2A
:1013600068F11A16F040A22F232F342F4427585F1C
:10137000F3CF469537952795A795F0405395C9F734
:101380007EF41F16BA0B620B730B840BBAF09150EC
:10139000A1F0FF0FBB1F661F771F881FC2F70EC08B
:1013A000BA0F621F731F841F48F48795779567955E
:1013B000B795F7959E3F08F0B0CF9395880F08F04A
:1013C0009927EE0F9795879508950E94CF0A08F404
:1013D00081E008950E94FE090C940A0B0E94030B01
:1013E00058F00E94FC0A40F029F45F3F29F00C9469
:1013F000F30A51110C943E0B0C94F90A0E941B0B3A
:1014000068F39923B1F3552391F3951B550BBB2733
:10141000AA2762177307840738F09F5F5F4F220F78
:10142000331F441FAA1FA9F335D00E2E3AF0E0E86F
:1014300032D091505040E695001CCAF72BD0FE2FB9
:1014400029D0660F771F881FBB1F2617370748074D
:10145000AB07B0E809F0BB0B802DBF01FF27935805
:101460005F4F3AF09E3F510578F00C94F30A0C94CC
:101470003E0B5F3FE4F3983ED4F3869577956795EE
:10148000B795F7959F5FC9F7880F911D969587953A
:1014900097F90895E1E0660F771F881FBB1F621759
:1014A00073078407BA0720F0621B730B840BBA0B17
:1014B000EE1F88F7E09508950E94630A6894B111C1
:1014C0000C943E0B08950E94230B88F09F5798F0D0
:1014D000B92F9927B751B0F0E1F0660F771F881F39
:1014E000991F1AF0BA95C9F714C0B13091F00E9453
:1014F0003D0BB1E008950C943D0B672F782F8827A2
:10150000B85F39F0B93FCCF3869577956795B39579
:10151000D9F73EF490958095709561957F4F8F4FE8
:101520009F4F0895E89409C097FB3EF490958095ED
:10153000709561957F4F8F4F9F4F9923A9F0F92F99
:1015400096E9BB279395F695879577956795B79517
:10155000F111F8CFFAF4BB0F11F460FF1BC06F5FFD
:101560007F4F8F4F9F4F16C0882311F096E911C00F
:10157000772321F09EE8872F762F05C0662371F030
:1015800096E8862F70E060E02AF09A95660F771F44
:10159000881FDAF7880F9695879597F90895990F20
:1015A0000008550FAA0BE0E8FEEF16161706E8072D
:1015B000F907C0F012161306E407F50798F0621B4E
:1015C000730B840B950B39F40A2661F0232B242B23
:1015D000252B21F408950A2609F4A140A6958FEF42
:1015E000811D811D089597F99F6780E870E060E094
:1015F00008959FEF80EC089500240A9416161706AC
:1016000018060906089500240A94121613061406F3
:1016100005060895092E0394000C11F4882352F056
:10162000BB0F40F4BF2B11F460FF04C06F5F7F4F0E
:101630008F4F9F4F089557FD9058440F551F59F0F5
:101640005F3F71F04795880F97FB991F61F09F3FAF
:1016500079F087950895121613061406551FF2CFD8
:101660004695F1DF08C0161617061806991FF1CF28
:1016700086957105610508940895E894BB2766274F
:101680007727CB0197F908950E94CF0A08F48FEFCE
:1016900008950E945C0B0C940A0B0E94FC0A38F01F
:1016A0000E94030B20F0952311F00C94F30A0C9484
:1016B000F90A11240C943E0B0E941B0B70F3959FAA
:1016C000C1F3950F50E0551F629FF001729FBB2739
:1016D000F00DB11D639FAA27F00DB11DAA1F649FD5
:1016E0006627B00DA11D661F829F2227B00DA11D88
:1016F000621F739FB00DA11D621F839FA00D611D0E
:10170000221F749F3327A00D611D231F849F600D2E
:10171000211D822F762F6A2F11249F5750409AF057
:10172000F1F088234AF0EE0FFF1FBB1F661F771FE3
:10173000881F91505040A9F79E3F510580F00C94AE
:10174000F30A0C943E0B5F3FE4F3983ED4F3869586
:1017500077956795B795F795E7959F5FC1F7FE2B4E
:10176000880F911D9695879597F9089519F416F4A9
:101770000C94F90A0C94FC0B0E94230BB8F39923E8
:10178000C9F3B6F39F57550B87FF0E940A0C00243C
:10179000A0E640EA900180585695979528F4805C21
:1017A000660F771F881F20F026173707480730F489
:1017B000621B730B840B202931294A2BA6951794A1
:1017C0000794202531254A2758F7660F771F881F71
:1017D00020F026173707480730F4620B730B840B91
:1017E000200D311D411DA09581F7B901842F91581D
:1017F000880F9695879508959F3F31F0915020F47A
:10180000879577956795B795880F911D96958795DC
:1018100097F9089591505040660F771F881FD2F7AF
:061820000895F894FFCFCB
:1018260000000002000000006D0100000000010041
:1018360000002020202020202020202020202020E2
:101846002020202020202020202020202020202092
:101856002020202020202020202020202020202082
:101866002020202020202020202020202020202072
:1018760020200000C041205365742054656D70001F
:10188600205365742046616E2F4D6F74696F6E200C
:101896000043555252454E5420544D503A0044454B
:1018A600534952454420544D503A002046414E205B
:1018B6005354415455533A2020202000204D4F5474
:1018C600494F4E3A20202020202020200020202092
:1018D6002020202020202020202020202020202002
:1018E60020202020202020202020202020202020F2
:1018F60020202000060211021C02270232022020AC
:1019060020202020202020202020202020202020D1
:101916002020202020202020202020202020000001
:00000001FF
