:100000000C9446000C9465000C9465000C946500FB
:100010000C9465000C9465000C9465000C946500CC
:100020000C9465000C9465000C9465000C946500BC
:100030000C9465000C94D9000C9465000C94650038
:100040000C9465000C9465000C9465000C9465009C
:100050000C9465000C9465000C9465000C9465008C
:100060000C9465000C9465000C9465000C9465007C
:100070000C9465000C9465000C9465000C9465006C
:100080000C9465000C9465000C94650011241FBE4F
:10009000CFEFD0E4DEBFCDBF11E0A0E0B1E0E8E8F3
:1000A000F4E000E00BBF02C007900D92A231B1074F
:1000B000D9F721E0A2E1B1E001C01D92AB31B20756
:1000C000E1F70E94FD010C9442020C940000CF93D2
:1000D000DF9300D01F92CDB7DEB789837B836A831D
:1000E00089818A3031F48A819B81BC018DE00E9434
:1000F000670080EC90E0FC018081882F90E08072A6
:100100009927892BB1F386EC90E02981FC012083AB
:1001100080E090E00F900F900F90DF91CF910895C5
:10012000CF93DF93CDB7DEB781E890E02BE0FC0101
:10013000208388E890E02DE730E0FC0131832083C4
:100140008FE690E022E0FC01208380910E019091E7
:100150000F01A0911001B0911101809313019093B0
:100160001401A0931501B09316018FE590E02FE5DF
:1001700030E0F90120812068FC0120830000DF913C
:10018000CF910895CF93DF93CDB7DEB781E890E0AC
:10019000FC0110820000DF91CF910895CF93DF938F
:1001A000CDB7DEB781E0809312010000DF91CF91DF
:1001B00008951F920F9200905F000F9211240090FB
:1001C0005B000F922F933F934F935F936F937F93B7
:1001D0008F939F93AF93BF93EF93FF93CF93DF934F
:1001E000CDB7DEB78091130190911401A091150154
:1001F000B09116010197A109B10980931301909361
:100200001401A0931501B0931601809113019091F0
:100210001401A0911501B0911601892B8A2B8B2B0B
:1002200091F40E94CE0080910E0190910F01A09157
:100230001001B09111018093130190931401A093C8
:100240001501B09316010000DF91CF91FF91EF915E
:10025000BF91AF919F918F917F916F915F914F91DE
:100260003F912F910F9000925B000F9000925F00E2
:100270000F901F901895CF93DF9300D000D0CDB78B
:10028000DEB769837A838B839C8389819A81AB8172
:10029000BC8180930E0190930F01A0931001B09345
:1002A000110180910E0190910F01A0911001B09168
:1002B00011018093130190931401A0931501B09341
:1002C000160100000F900F900F900F90DF91CF91CB
:1002D0000895CF93DF93CDB7DEB780911801909149
:1002E00019018230910591F18330910528F400972E
:1002F00071F00197B1F078C08430910509F450C0D5
:1003000084309105C0F1059709F45CC06DC081E0AF
:1003100090E0909319018093180181E08093170178
:1003200068C080911A01813039F484E090E09093A4
:1003300019018093180106C082E090E090931901A2
:100340008093180181E08093170153C080911A01B6
:10035000813039F484E090E0909319018093180182
:1003600006C083E090E0909319018093180182E029
:10037000809317013EC080911A01813039F484E0E6
:1003800090E0909319018093180106C081E090E0FD
:10039000909319018093180184E08093170129C07C
:1003A00080911A01813039F484E090E09093190132
:1003B000809318011EC085E090E09093190180930E
:1003C000180117C080911A01882339F485E090E064
:1003D00090931901809318010CC081E090E09093F4
:1003E00019018093180105C010921901109218018B
:1003F00000000000DF91CF910895CF93DF93CDB738
:10040000DEB781E290E0FC01108282E290E02FEF03
:10041000FC01208384E290E02FEFFC01208385E241
:1004200090E0FC01108210921A016CE271E080E011
:1004300090E00E943B010E949000109219011092DE
:1004400018011092170180E290E0FC018081882F52
:1004500090E08170992721E0892B09F020E0822F1C
:1004600080931A010E94690185E290E020911701B2
:10047000FC0120830000809112018823E1F3109297
:080480001201E1CFF894FFCF57
:1004880000000002000000006700000000000100FA
:02049800000062
:00000001FF
