:100000000C9446000C945D000C945D000C945D0013
:100010000C945D000C945D000C945D000C945D00EC
:100020000C945D000C945D000C945D000C945D00DC
:100030000C945D000C945D000C945D000C945D00CC
:100040000C945D000C945D000C945D000C945D00BC
:100050000C945D000C945D000C945D000C945D00AC
:100060000C945D000C945D000C945D000C945D009C
:100070000C945D000C945D000C945D000C945D008C
:100080000C945D000C945D000C945D0011241FBE67
:10009000CFEFD0E4DEBFCDBF11E0A0E0B1E0ECEDEA
:1000A000F1E000E00BBF02C007900D92AE30B10747
:1000B000D9F70E9488000C94EC000C940000CF93B8
:1000C000DF9300D01F92CDB7DEB789837B836A832D
:1000D00089818A3031F48A819B81BC018DE00E9444
:1000E0005F0080EC90E0FC018081882F90E08072BE
:1000F0009927892BB1F386EC90E02981FC012083BC
:1001000080E090E00F900F900F90DF91CF910895D5
:10011000CF93DF9300D01F92CDB7DEB781E290E09E
:10012000FC01108282E290E0FC01108287E290E004
:100130002FEFFC01208388E290E0FC01108280E236
:1001400090E0FC0180818F708A8380E290E0FC0166
:10015000808180778B8386E290E0FC0180818983B7
:100160008A81882311F4198225C08A81833018F48A
:1001700080E289831FC08A81853018F480E38983F7
:1001800019C08A81873018F488E3898313C08A8173
:100190008A3018F48CE389830DC08A818D3018F47D
:1001A0008EE3898307C08A81803118F48FE38983C5
:1001B00001C019828A81853018F48981806489831D
:1001C0008B81803319F489818068898388E290E08B
:0C01D0002981FC012083B3CFF894FFCFFD
:0E01DC0000000002000000005F0000000000B4
:00000001FF
